:020000041000EA
:10000000002008205D0100101B0100101D010010E0
:100010001101001011010010110100101101001058
:100020001901001019010010190100101F01001022
:10003000110100101901001021010010230100100E
:100040001101001011010010110100101101001028
:100050001101001011010010110100101101001018
:100060001101001011010010110100101101001008
:1000700011010010110100101101001011010010F8
:1000800011010010110100101101001011010010E8
:1000900011010010110100101101001011010010D8
:1000A00011010010110100101101001011010010C8
:1000B00011010010110100101101001011010010B8
:1000C00011010010110100101101001011010010A8
:1000D0001101001011010010110100101101001098
:1000E0001101001011010010110100101101001088
:1000F0001101001011010010110100101101001078
:100100001101001011010010110100101101001067
:10011000EFF30580103800BE00BE00BE00BE00BE7A
:1001200000BE00BEF2EB88719C070C10C4070C10D7
:10013000A001001090A31AE7D3DEFFFF42012110B7
:10014000FF01000068190C00793512AB4FF0000078
:100150001E49086006C881F3088810474FF05040D8
:10016000006810B14FF00000F2E70DA40ECC00299A
:1001700002D000F012F8F9E71549164A002000E015
:1001800001C19142FCD11449884714498847144958
:10019000884700BEFDE701C901C29A42FBD3704700
:1001A000C4070C1010010020EC130020A01A0C1042
:1001B0000000082000000820A01A0C1000100820E1
:1001C00000100820000000007047000008ED00E06B
:1001D000EC130020741C0420E5580010CD0400101E
:1001E000A9580010F8B500BF064B0749C91A891075
:1001F00048BF0131491003D0044B0BB101481847E7
:10020000704700BFEC130020EC130020000000003A
:1002100008B5054B1BB105490548AFF30080BDE8A3
:100220000840FFF7E1BF00BF00000000C40F02203C
:10023000ECB8071030B53B4891B005F047FD3A4D9A
:100240003A4805F043FD3A4805F0C0FD2B6800240C
:10025000986875F0B5FF374805F0B0FC0D280346E7
:100260003EDC821CF7DB02330F2BF4D801A252F8DC
:1002700023F000BF1D0300105702001057020010AA
:1002800057020010570200105702001057020010CA
:100290005702001057020010570200100703001009
:1002A00057020010B502001057020010570200104C
:1002B000B5020010002C05DD00216C446846217059
:1002C00000F0A8FD1A4805F081FD2B68002498680D
:1002D00075F076FF174805F071FC0D280346C0DD68
:1002E0007E280EDC1F28B6DD3E2CB4D80DEB0402B0
:1002F000107005F0A9FC2B680134986875F060FF58
:10030000A9E77F28A7D1002CA5DD0B4805F05EFDED
:100310002B68013C986875F053FF9CE70A2007F0B2
:10032000C1FD98E7F0B807102C11002004B90710A0
:1003300028B90710A08601002CB9071038B50A4863
:1003400005F0C4FC002408F0D3FC084D04F00102C1
:10035000002107480AF092FB286884F00104400855
:1003600007F0A0FDF2E700BF30B90710000C002035
:100370006C22012008B503F031F829B14FF47A72EC
:1003800000237BF05DFA08BD024AA2FB0020800931
:1003900008BD00BFD34D6210F8B5374805F096FC94
:1003A00000F0E8FB0146354C3548216005F00EFDB4
:1003B000344805F08BFC344833F04AFA2468002CAA
:1003C00049D0324805F082FC314D00F095FD1BF01C
:1003D00069FE10F013FD00201AF050FA2C68002C72
:1003E00041D02C4E2C4F25E002F0F8FF69B34FF4BA
:1003F0007A7200237BF024FA0446306818B1201A80
:1004000002D033F0A1F934602BF02CFC431C1AD03D
:1004100001281ED0002816DD6428A8BF64200446E9
:10042000002328681A46194606F0B8FE204607F051
:1004300039FD2C684FF47A71204607F03BF801280B
:10044000D2D0C820F3E7C824EAE7A7FB0034A40908
:10045000D3E70A24E4E7114805F038FC2046BDE85C
:10046000F84007F0ABBB0E4805F030FC2046BDE875
:10047000F84007F0A3BB00BF48B90710482B012084
:100480005CB9071084B9071075030010BCB90710D8
:10049000602B0120B84F0120D34D6210A0B9071086
:1004A000D0B9071008B5034805F090FC642002F0AD
:1004B0007FFEFBE7ECB9071008B5034805F006FC22
:1004C000642002F075FEFBE710BA071010B586B085
:1004D00005F06EFB642002F06BFE344805F0F6FB7D
:1004E000334805F0F3FB334805F0F0FB00F0D2FF92
:1004F00000230120CDE90333059306F0D9FE2E4BEE
:100500001860002842D0022403A8019000234FF471
:1005100000622A492A48009407F03EFB012805D0D2
:10052000284805F0D3FB012006B010BD04A8CDE992
:10053000004000234FF480622349244807F02CFB3D
:10054000012803D0224805F0C1FBECE705ACCDE95A
:10055000000400234FF400621E491F4807F01CFBF3
:1005600001280FD1002303244FF40062CDE900439A
:100570001A491B4807F010FB01280BD0194805F059
:10058000A5FBD0E7184805F0A1FBCCE7174805F01C
:100590009DFBB8E701F0ECF8154805F097FB07F074
:1005A0007FFB144805F092FBBDE700BF30BA07108F
:1005B00050BA07106CBA0710602B0120C8BA071098
:1005C00099030010D4BA0710F0BA07103D030010C9
:1005D000FCBA07101CBB07103502001048BB0710FF
:1005E0008912001058BB071028BB0710ACBA0710BF
:1005F0007CBB07109CBB071038B54FF080730446D6
:100600000D46204A93609368DB01FCD50120002150
:1006100002F064FD10EE103083F0080303F00C03C9
:1006200020EE10300120002102F058FD8DB1A01EF7
:10063000144B00EB450C30F8021FCCB25A68D503BE
:10064000FCD41C74090A5A68D203FCD4844519747A
:10065000F1D14FF080730B4A93609368DB01FCD5B6
:100660000120002102F03AFD10EE1030DB4303F0D0
:100670000C0320EE10300120BDE83840002102F0CC
:100680002DBD00BF0000205070B52B4E3368002BED
:100690004EDB4FF0807305460C46284A9360936802
:1006A000DB01FCD50120002102F018FD10EE103016
:1006B00083F0080303F00C0320EE1030002101202A
:1006C00002F00CFD01234FF0A04231688B404FEA4D
:1006D000811CC2F864346244D3685801FCD4184BBE
:1006E000640003EA413343F011031361154B1560B5
:1006F0000CF1A04C5360D461DCF810305A01FBD4EB
:100700004FF080730D4A93609368DB01FCD50120A4
:10071000002102F0E3FC10EE1030DB4303F00C0389
:1007200020EE10300120BDE87040002102F0D6BC60
:10073000BDE87040FFF760BF040C002000002050AF
:10074000FDFF01FC10002050F0B54FF02A0C4FF0D7
:1007500080770E46013A83B05D1E634C83188DF896
:1007600002008DF804300D44000AC3F307238DF80E
:1007700000C08DF801008DF80330ADB2A760A3680A
:10078000D801FCD50120002102F0A8FC10EE1030A9
:1007900003F00C0320EE10300120002102F09EFC3B
:1007A000514A5368D903FCD42A204FF080734E4934
:1007B000107493608B68DB01FCD50120002102F0EE
:1007C0008DFC10EE103083F0080303F00C0320EED4
:1007D00010300120002102F081FC434A0DF101009C
:1007E0000DF1050410F8011B5368DF03FCD4A0428F
:1007F0001174F7D14FF080733B4F9360BB68DA01FF
:10080000FCD50120002102F069FC10EE1030DB4322
:1008100003F00C0320EE10300120002102F05EFCFA
:100820002B238DF800302B0A8DF803304FF08073A6
:100830008DF802602C4A360A8DF801608DF804505C
:10084000BB609368DB01FCD50120002102F046FC6F
:1008500010EE103003F00C0320EE103001200021C8
:1008600002F03CFC204A5368DF03FCD42B204FF0FD
:1008700080731D49107493608B68DE01FCD50120E4
:10088000002102F02BFC10EE103083F0080303F07F
:100890000C0320EE10300021012002F01FFC124A50
:1008A0000DF1010111F8010B5368DD03FCD4A142E5
:1008B0001074F7D14FF080730B4993608B68DB01A4
:1008C000FCD50120002102F009FC10EE1030DB43C2
:1008D00003F00C0320EE10300120002103B0BDE82E
:1008E000F04002F0FBBB00BF000020502DE9F041BA
:1008F000064608468846174626F08AFE04464046C5
:1009000026F08CFE0546A2B2ABB2B8F80410B8F8D7
:100910000000FFF719FF4FF08073254A936093683A
:10092000D901FCD50120002102F0D8FB10EE1030D7
:1009300003F00C0320EE10300021012002F0CEFB6A
:100940001B494B68DA03FCD42C230B744FF08073E3
:10095000174A8B609368DB01FCD50120002102F06F
:10096000BDFB10EE1030DB4303F00C0320EE103023
:100970000120002102F0B2FB0120002102F0AEFBB9
:1009800010EE103083F0080303F00C0320EE10305B
:100990000120002102F0A2FBA4B2A9B2384604FB58
:1009A00001F1FFF771FE3046BDE8F0411AF0AABD33
:1009B000000020502DE9F041002086B005F0B6FD82
:1009C0000246664C664B204666491A6005F082FB7B
:1009D00006210546002001F08BFA062101204FF088
:1009E000010801F085FA0022434611462046CDF861
:1009F000008005F01DFC4346424600212046CDF80C
:100A0000008005F015FC4FF48031574A574B05EB39
:100A10000800CDE90423EB0143EA003323F0C0438F
:100A20002A46CDE902132046002102AB05F046FC20
:100A30002368022043EA0803236001F0E1FA03205F
:100A400001F0DEFA042001F0DBFA052001F0D8FA0B
:100A5000022348EC4430032248EC4420042648ECAE
:100A60004460052248EC442048EC40304FF000033D
:100A700043EC402043EC4060642002F099FB48ECDA
:100A80004060642002F094FB4FF08076384FA660FF
:100A9000A368DA01FCD50120002102F01FFB10EE53
:100AA000103003F00C0320EE10300120002102F082
:100AB00015FBBA786368DB03FCD4B8F1010F22742C
:100AC0001FD0A660A368DD01FCD50120002102F043
:100AD00005FBFD1C10EE103083F0080303F00C033F
:100AE00020EE10300021012002F0F8FA08F1020196
:100AF000394415F8012B6368D803FCD4A942227449
:100B0000F7D1A660A368DB01FCD50120002102F02B
:100B1000E5FA10EE1030DB4303F00C0320EE10304A
:100B20000120002102F0DAFA787800EB800002F070
:100B30003FFB3B7802331F4497F80080B8F1000F69
:100B4000A5D1962002F034FB05234FF0010242ECC0
:100B50004030404606B0BDE8F08100BF00002050A4
:100B6000040C00208CDB071000000650000410204D
:100B700060DB071030B583B0FFF71CFF24F08CF961
:100B8000F0214FF4A0701AF06BF8002504460E49CE
:100B90001AF020FC4FF4C85320462A460B49009512
:100BA0001AF01EFB20461AF0E3F928460CF034FA3E
:100BB00020B11AF0FFFC204603B030BD044805F018
:100BC00085F8204603B030BDED080010A8330120A1
:100BD000C8BB071000B5037883B0FBB1124A02E02E
:100BE00010F8013FD3B1D35C1B07F9D40F4901AA18
:100BF00075F010FC01280AD1019B0D4A0D48D9B2AD
:100C0000137005F0E3F8002003B05DF804FB0A4818
:100C100005F05CF8012003B05DF804FB044B0748C5
:100C2000197805F0D3F8EEE76D990B1060BC07104A
:100C30006E1C04203CBC071008BC0710E8BB071062
:100C400000B5037883B023B3174A02E010F8013FE0
:100C5000FBB1D35C1B07F9D4144901AA75F0DAFB88
:100C600001280FD142F2AC630199A1F164029A42CA
:100C700015D80F4B0F48196005F0A8F8002003B0F5
:100C80005DF804FB0C4805F021F8012003B05DF885
:100C900004FB074B0948196805F098F8EEE7084887
:100CA00005F094F8F1E700BF6D990B1060BC0710D8
:100CB000000C002080BC0710E4BC071064BC0710C7
:100CC000A4BC071008B50B4805F000F80A4804F06A
:100CD000FDFF0A4804F0FAFF094804F0F7FF09484D
:100CE00004F0F4FF084804F0F1FF084804F0EEFFB8
:100CF000002008BD2CBD071044BD071090BD071093
:100D0000D4BD071008BE071038BE07106CBE071010
:100D100010B582B0184901AA75F07CFB012805D0F6
:100D2000164804F0D3FF012002B010BD019A144B05
:100D3000144CA3FB02135B09C3EB0313A2EB830266
:100D400064212068019206F0B5FB01280FD10198BB
:100D500000F09EF90023206819461A4606F01EFA94
:100D60000199094805F032F8002002B010BD07488B
:100D700004F0ACFFD7E700BF60BC07109CBE0710B3
:100D800089888888602B0120CCBE0710E8BE071038
:100D900010B50D4C6421206806F08CFB01280ED1A3
:100DA00000F050F900F064F9002320681A46194653
:100DB00006F0F4F9054804F089FF002010BD04484E
:100DC00004F084FF012010BD602B012008BF071034
:100DD000E8BE071010B50C4C6421206806F06AFBD1
:100DE00001280CD100F0A4F8002320681A46194607
:100DF00006F0D4F9054804F069FF002010BD04484E
:100E000004F064FF012010BD602B012020BF0710FB
:100E1000E8BE0710002864D00378002B61D02DE9CC
:100E2000F0410C46002601462F4D90B004E011F829
:100E3000013F0136002B48D0EA5C12F00802F6D1DF
:100E400006F1010C6F4600EB0C010CE03F2A40D08C
:100E5000884607F8013B11F8013B66460132002B3A
:100E60003CD00CF1010C15F803E01EF0080EEDD09B
:100E700000EB060800260DEB02010E70844403E02F
:100E8000E0461CF8013B13B1EB5C1B07F8D4E2B160
:100E9000164D00262F46164903E057F80C1F013661
:100EA00079B1684675F0B6FC0028F6D106EB460627
:100EB00005EB860521464046AB68984710B0BDE873
:100EC000F08169460B4804F081FF012010B0BDE8B5
:100ED000F0818DF83FE000EB0608CFE76A4413701D
:100EE000D6E70120704700BF6D990B1098DB071003
:100EF00038BF071040BF071010B51BF0D3F868B11A
:100F00003CF02EFB084904463CF036FB002320460B
:100F1000BDE8104009211A460EF0A4BF0348BDE801
:100F2000104004F0D3BE00BF9CC0071068C007107B
:100F300070B53F4C3F4882B004F0C8FE25682DB123
:100F40003D4802B0BDE8704004F0C0BE1BF0AAF8F6
:100F500040F09EFE9622114620600EF02DFE206885
:100F6000082140F0A1FE2A462068FF2115F048FD27
:100F700005212846266829F089F903468DF80430B2
:100F8000C3F30721C3F307438DF806308DF805102E
:100F900030462A46019915F01DFD2A46206847F67D
:100FA000FF7115F0B7FF2A462068012115F0C2FF36
:100FB0002B462A46206809210EF054FF20680121A3
:100FC00040F08AFE20681F2140F074FE2068052151
:100FD00040F07AFE20684FF4A022052115F022FC93
:100FE00020684FF400320A2115F01CFC3C222946EF
:100FF000206840F07BFE20684FF4877140F090FE3F
:101000008721206840F092FE20683DF0B7FB0B4C32
:101010002A460621206015F047FE20682A46012155
:1010200015F05AFE064802B0BDE8704004F04EBE0E
:1010300068110220A8C00710B8C00710C00F022016
:10104000D4C0071010B5074C206850B116F0C2FA92
:101050000023054A23600548BDE81040136004F0F2
:1010600035BE10BD68110220C00F0220ECC0071071
:1010700008B51BF017F816F0B3FA00230249034A2B
:101080000B60136008BD00BF68110220C00F022072
:101090000A4B10B41C6874B1094B196859B13B284C
:1010A0000346A8BF3B2320463C225DF8044B23EABD
:1010B000E37340F059BE5DF8044B7047681102209D
:1010C000C00F022001234BF68032F0B51848194CAE
:1010D00019491A4D83B0C4F80A002046A37322812F
:1010E0006160256000F014FC154804F0EFFD15491F
:1010F000154804F06BFE217B144804F067FE21893B
:10110000134804F063FE20687AF096FB024660689C
:101110000D4614467AF090FB06460F4622462B46B3
:10112000CDE900670B4804F051FE03B0F0BD00BFED
:1011300001014010701B00200000484200401C4686
:1011400004C1071000E02E0024C107103CC10710A5
:1011500050C1071068C107102DE9F041374D2C78B8
:101160001CB101242046BDE8F081354E354804F01D
:10117000ADFD3368002B55D04FF404620021324896
:1011800075F03EFA00220221304F3148314B324C8B
:10119000386032481A70216004F098FD304804F03D
:1011A00095FD304804F092FD2F4804F08FFD01209A
:1011B00005F0BCF90146DFF8CC802C48C8F80010D7
:1011C00004F004FE60213F68D4F800C007F12F440A
:1011D000D8F80030264A04F560040CF1040E240D02
:1011E0000EEBC40402EA433242EA44420CF1080C1A
:1011F000204E9B0142F0807203F1A04307EB8C0765
:1012000042F049021F601C485E609960DA604FF04E
:101210008043002204F0DAFD184804F057FD012352
:101220002B709EE703222146012005F079FF3060F4
:101230000028A1D1124804F049FD93E76F1C042057
:10124000A433012084C10710642B0120AC4F01207E
:10125000000020506D1C0420B04F0120D0C10710A9
:1012600004C2071038C2071060C2071070C207100E
:10127000FDFF01FCA84C01208CC20710C8C207105A
:10128000A8C10710A84F01202DE9F04F664885B08E
:1012900004F01CFDFFF760FF002800F0BA806348EF
:1012A00004F014FDFFF70EFF4BF680334022604937
:1012B000604804F08BFD30234FF4C07260215E481B
:1012C00004F084FD5D4804F001FD01220023CDE916
:1012D00002235B4A99465B4D5B4CDFF89C815B4F78
:1012E0005B4E019211E0019920465A4B01EB4901F6
:1012F000012200F01FFD23462C461D4609F130094E
:101300001FFA89F9012006F0CDFD534B19688A01B7
:1013100002F1A042136913F08063F3D14FF0600B28
:101320004E48D8F800E000EA413CD7F800A00EF1A2
:101330002F4000F56000000D0AF1040101EBC0012F
:101340004CEA41410AF1080A0EEB8A0041F04901DA
:10135000B9F5F07F10605560C2F808B0D160C2D90D
:10136000029A32703E4A106818B11A46194605F0C2
:1013700015FF3C4B03991B780131012B039105D9D3
:101380000B464A460299384804F020FD029B012B87
:101390003AD0012302932A4B019302F01FF869B35C
:1013A0004FF47A7200237AF04BFA81460BE04FF447
:1013B0007A7200237AF044FAA0EB0900632811D86E
:1013C000012006F06FFD337863B102F007F80346A1
:1013D0000029ECD1254AA2FB03308009A0EB0900CB
:1013E0006328EDD920461B4B0122019900F0A2FC95
:1013F00023464FF030092C461D4683E71B4BA3FBC9
:1014000000394FEA9919DEE702230293184B019342
:10141000C3E70446174804F059FC204605B0BDE870
:10142000F04F06F0CBBB00BFD8C2071018C307109F
:1014300000E02E003CC3071074C30710A8C30710B8
:10144000642B0120284E0120A84C0120B04F012020
:101450006D1C0420701B0020A84F0120FDFF01FC23
:10146000A43301206E1C0420D0C30710D34D62109A
:10147000842F0120F0C20710AC4F0120014B1878D7
:10148000704700BF6D1C04200022014B1A7070478A
:101490006D1C042070B52DED028B494D88B0494874
:1014A00004F014FC2B68484823F002032B6004F07E
:1014B0000DFC052002F0C6F807EE900A9FED437A76
:1014C000F8EE677A2846424987EE878A04F002FEE2
:1014D00004464048214604F079FC002001230622FE
:1014E00002210090284604F0A3FE012307220221D6
:1014F0002846009304F09CFE07204FF480334FF4FD
:101500004025E21C049304FA00F343EA0233324E0E
:1015100023F0C04306210593CDE9065600F0E8FC10
:101520000621084600F0E4FCDFED2C7A78EE277AFD
:10153000BCEEE77A069A2A4B134043F00043069329
:1015400017EE103A9BB2002B38D007EE103AB8EEE7
:10155000477ADFED246A77EEC77A67EEA67AFCEE6B
:10156000E77ACDED037A9DF80C000002144D40EAB5
:1015700003402246022104AB0490284604F09EFE5C
:101580002B68194843F004032B6004F09FFB18EE0E
:10159000100A7AF051F902460B46144804F016FC82
:1015A000134804F093FB134804F090FB124808B072
:1015B000BDEC028BBDE8704004F088BB1846D5E74F
:1015C0000000205000C4071044C4071000803B4BAB
:1015D000ECDB071078C40710001C03200000003B60
:1015E000FF3F0A3E00008043ACC40710D8C4071078
:1015F00020C5071060C50710A0C507102DE9F84FDA
:101600004D4804F063FB00274C4C4D4E4D4DDFF828
:101610005C81206858B142F2107105F04BFF01283F
:101620000CD0494804F052FB20680028F3D1474809
:1016300004F04CFB642006F035FCEAE7FFF71EFFE0
:1016400000285FD0012861D0022806D0014640481A
:1016500004F0BCFBFFF718FFDBE796F80090B9F148
:10166000010F5AD83B4A4FF0000A4FF0000B931E6F
:1016700002F21E4C33F9022F9C45C2FB82ABF9D11A
:101680004FEA9A7242EA8B0222F040422AF040432B
:101690004FEAEB7C134403EB1B730CF03102134451
:1016A000A5FB03E2D20802EB42122CF01F0C9B1A9E
:1016B00003EB0C02BAEB020308FB03F06BEBE272E4
:1016C000A3FB053C05FB020111EB0C0102D50F3316
:1016D00041F100011B0943EA0170091102F02CFBE2
:1016E0007AF0CAF8B9F1010F09D902F0A3FA07F1AB
:1016F000010901463A46184804F068FB4F46FFF7D7
:10170000C3FE86E7154804F0E1FA82E796F80090F8
:10171000B9F1010F08D8124AA5E7124804F056FBA8
:101720000C4A96F800909EE70F4804F04FFB0C4AD5
:1017300096F8009097E700BFE8C50710A433012092
:101740006E1C0420E1830F3E34C6071004C6071048
:10175000C0C60710842F0120E8C6071058C607101E
:10176000642B0120A8C6071090C60710F8E0830F6D
:1017700010B50023032482B04FF4A062CDE90043EA
:101780000649074806F008FA012814BF054806482C
:1017900002B0BDE8104004F099BA00BF08C70710B6
:1017A000FD15001018C7071044C7071010B543787F
:1017B00090F800C003EB4303274A0CEB4C0E01EBFF
:1017C000031C0CF1030C52F82C4090F802C001EB02
:1017D0000E130CEB4C0C52F8233001EB0C1C0CF1EB
:1017E000060C234452F82C4090F803C023440CEB21
:1017F0004C0C01EB0C1C0CF1090C52F82C4090F82D
:1018000004C023440CEB4C0C01EB0C1C0CF10C0C35
:1018100052F82C4090F805C023440CEB4C0C01EB23
:101820000C1C0CF10F0C52F82C4090F806C0C0793B
:101830000CEB4C0C01EB0C1C00EB40000CF1120CFF
:1018400001EB00112344153152F82C4052F82100CD
:101850002344184410BD00BFC04F012010B5837849
:1018600090F800C003EB4303274A0CEB4C0E01EB4E
:10187000031C0CF1030C52F82C4090F804C001EB4F
:101880000E130CEB4C0C52F8233001EB0C1C0CF13A
:10189000060C234452F82C4090F806C023440CEB6D
:1018A0004C0C01EB0C1C0CF1090C52F82C4090F87C
:1018B00008C023440CEB4C0C01EB0C1C0CF10C0C81
:1018C00052F82C4090F80AC023440CEB4C0C01EB6E
:1018D0000C1C0CF10F0C52F82C4090F80CC0807BC3
:1018E0000CEB4C0C01EB0C1C00EB40000CF1120C4F
:1018F00001EB00112344153152F82C4052F821001D
:101900002344184410BD00BFC04F01200000000058
:101910002DE9F04F2DED028B0023057B85B082462B
:10192000C0E90433C3638361A0F84030002D00F0A8
:10193000ED81012D00F0EE81C34A6B0811460126AE
:1019400002EBC30201270B46E3E802679A42FBD190
:10195000EB0704D505F0FE03012241F823206C00BB
:10196000631E1FFA83FB2C449AED008AB5EE408A71
:1019700000220023F1EE10FACAE90C23CAE90A2377
:10198000CAE9082300F0B981DFEDB07A68EE277A62
:1019900017EE900A79F050FF0646BAF808000F4695
:1019A00002F012F9A6A3D3E9002302F065F88046FD
:1019B00018EE100A894679F03FFF02460B46404672
:1019C000494602F00BF80B4602463946304602F013
:1019D00053F802F02FF983B29AED018AB5EE408AEE
:1019E000F1EE10FAAAF8383000F08581BAF80890C4
:1019F0004FEA092002F0E8F8064618EE100A0F46F2
:101A000079F01AFF8EA3D3E9002302F00FF8024603
:101A100048469046894602F0D7F802460B464046B3
:101A2000494601F0DBFF0B4602463946304602F0DC
:101A300023F802F0FFF883B24FF0FF31AAF83A30F2
:101A40000323002215FB03138149AAF81C400A60F6
:101A500041F823206B00012B03F1FF3440F35C813C
:101A6000C5F10103CDE9025B1746D3469A466E1EC7
:101A7000B1B2DFF8E081DFF8D0911FFA83FE019167
:101A80000023B24248F8043B80F22E8119461FFA27
:101A900082FC0020521A013209EB820209EB810517
:101AA000009755F8043B52F8047D013107FB030011
:101AB0008BB29C45F5D2009F48F8040C0137BFB2A9
:101AC0000EF1010EA7423A461FFA8EFED8DB5346AE
:101AD000029DDA46DDF80CB005EB0B02541E0BF14B
:101AE000FF3B00229446DFF880811FFA83FE0195B8
:101AF0005A4591464FF00003A8BFD946B24248F874
:101B00002C304FEA8C071FFA89F9C0F2EB80CE45E2
:101B10001BD873464C49D21A013201EB8202CDF830
:101B200000C00021A4464B4800EB8300013350F86D
:101B3000045B52F8044D9BB24B4504FB0511F5D9EB
:101B40006446DDF800C048F807100CF1010C1FFADC
:101B50008CFC0EF1010EA44562461FFA8EFEC7DB17
:101B6000019D3B4B3C4FB6B203EB8606A3F1040C40
:101B70003B1D4FEA8508019307F5C06E002D00F06C
:101B8000BE80002318463C46614651F8042FD31806
:101B900040F100008E4244F8042FF6D107F500779B
:101BA0007745C4444644EED19AF80D202B495B0892
:101BB00043EAC0734010C1E90030A2FB033102FBCD
:101BC00000110029264C04DA47F6FF729B1841F1F8
:101BD0000001DB0B43EA41409AF80E200023C913B1
:101BE00079F036FE012838BF0120E908206074D062
:101BF0000023019A013902F120001A4A89B200EB50
:101C0000411A11461A460B460020D3460291039210
:101C100019460446019AC0F3C81CC0F38017C0F3EC
:101C20000016C0F3401EC0F38008C0F3C009C0F323
:101C3000400A00F00105009318E000BFAFF30080F8
:101C40006E861BF0F9211940B81B0020000080436C
:101C50006C1102206C170220EC130020081E0020DB
:101C60004C2B0120C04F01207011022053681068D6
:101C700007FB03F300FB0C33D068203200FB063374
:101C800052F8180C00FB0E3352F80C0C00FB083015
:101C900052F8103C03FB090052F8043C03FB05001A
:101CA00052F8083C5A4503FB0A0041F80C0BDDD101
:101CB0002046009B0130B0F5807F03F1C003A7D11F
:101CC000039A019B0299013203F50073032A0193E1
:101CD0000BF5007A01F1040195D105B0BDEC028B42
:101CE000BDE8F08F002315E7019B73459C46FFF488
:101CF000E5AE7146CDE600239EE600236CE607F5CF
:101D00000077BE45FBD1002318464DE72C464FF621
:101D1000FF7B29E606491FE6BBF1010F01D16E1ECC
:101D20001FE70BF1FF3B5C466E1EC5F10103D8E6D1
:101D3000B81B00202DE9F04F1E468DB00B91997A0B
:101D40001B890892CA00D2B2B3F57A7F0A92099130
:101D5000D6E908B20092D6E90A520492D6E90C42BA
:101D60000192C0F0B780002301F1FF3A0795CDE959
:101D700002335D465FFA8AFA834628E010EB0C00D6
:101D80004FF0000341F1000179F062FD47F6BD73A9
:101D9000984271F1000101DB47F6BC70039B0B9A7E
:101DA000029922F81300099A0131D3180A9ADBB27A
:101DB00093440393494A33890291A2FB03238AB2D5
:101DC000B2EB931F79D2CDF81C80CDF81090444F20
:101DD000002157F82A305846984757F82A3080464D
:101DE000012158469847814657F82A300221584623
:101DF00098473C4BB6F838E0D3E900730693738FED
:101E000001990593336972694B447361CEF5807310
:101E1000C6F8108003FB01F84FEAE37904FB098858
:101E2000A3FB044312EB000C069A4FEAE07040F16A
:101E300000004344BCEB070860EB020900990798D7
:101E400018EB050249EB0101059D121A049861EB9C
:101E50000001A2FB052005FB0100150A021217462E
:101E6000214945EA006500920A68AEFB05010EFBB8
:101E70000711241843EB0103089F240A44EA036472
:101E8000A4FB07011B1207FB03110128019371F149
:101E900000034FEA520CBFF671AFB0EB0C004FF0ED
:101EA000000361F1000179F0D3FC4FF0FF330F4ADA
:101EB00090429941B8BF104670E7AB46009BC6E917
:101EC0000B94C6E90938019BC6F820B073630DB0C6
:101ED000BDE8F08FA846DDF81090EFE7D34D621013
:101EE000080C0020081E00204C2B01204480FFFF1E
:101EF00010B44FF480740C4B53F8202003EB800394
:101F0000C00082F0400200F1804003F5805C02F0E6
:101F1000C00200F5203003F54053CCF800204160AA
:101F20001C605DF8044B70470480034010B4084CFB
:101F3000C90041EA820154F8202004EB800351409B
:101F400003F5805301F00C015DF8044B19607047F4
:101F500004800340064B022203EB800319B103F512
:101F600000531A60704703F540531A60704700BF72
:101F7000048003404FF050431B6893B10C4B4FEA71
:101F8000D00C00F00700800081400A4803EB8C036E
:101F90000CF18C0C40F82C102AB103F50053196099
:101FA0007047054BEBE703F540531960704700BFDE
:101FB0009082024000800240488202402DE9F041B8
:101FC0004FF050480D4FD8F80030164657F82320F0
:101FD000044602420D4609D114432946324647F8C9
:101FE00023401520BDE8F04100F088B901F0C0FBA6
:101FF000D8F8003057F82320EEE700BF5811022030
:1020000030B44FF0000343EC440043EC400005259E
:102010004FF480740B4BC20053F8201003EB800088
:1020200081F0400102F1804303F5203301F0C0024A
:1020300000F5805100F540500A605D60046030BCDE
:10204000704700BF048003400FB400B583B0049C08
:10205000074803F03BFE3CB105A92046019103F07F
:10206000CDFB044803F032FE012003F0DFFB00BF8C
:1020700070C70710FCC30710EFF3108072B6064B51
:10208000D3E8CF1F01220029FAD1C3E8412F00294C
:10209000F6D1BFF35F8F7047DF2101200023034A91
:1020A000C2E88F3F80F31088704700BFDF21012016
:1020B00070B58646EFF3108572B6124CD4E8CF6F38
:1020C0000120002EFAD1C4E8460F002EF6D1BFF34E
:1020D0005F8F4FF0010CC80801F007030CFA03F3FF
:1020E0001EF800C01CEA030608D14CEA030C0EF8E7
:1020F00000C0C4E88F6F85F3108870BD1046FFF7ED
:10210000A3FF00BFDF210120F8B5EFF3108772B6FF
:102110001C4ED6E8CF5F0124002DFAD1C6E8454F0A
:10212000002DF6D1BFF35F8F9A421BD8012502E044
:102130000132934222D3D40810F804E002F0070CD5
:1021400005FA0CFC1EEA0C0FF2D14EEA0C0E00F858
:1021500004E010460023C6E88F3F87F310889842BA
:1021600007DBF8BD0023C6E88F3F87F310884FF0E8
:10217000FF300029F5D00698FFF766FF4FF0FF30DB
:10218000E8E700BFDF21012000B5EFF3108E72B643
:10219000104BD3E8CFCF0122BCF1000FF9D1C3E837
:1021A0004C2FBCF1000FF4D1BFF35F8F01224FEA37
:1021B000D10C01F0070102FA01F110F80C2022EA1B
:1021C000010200F80C200022C3E88F2F8EF3108844
:1021D0005DF804FBDF210120044A1078431CDBB2C8
:1021E000182B28BF10231370704700BF100C00205D
:1021F0004FF0E022936843F000539360704700BFB4
:102200000021044B03F12002C3E88F1F01339342E6
:10221000FAD17047D42101204FF0E0234FF08032F3
:10222000C3F80024C3F80424C3F80824C3F80C241A
:10223000C3F81024C3F81424C3F81824C3F81C24CA
:10224000C3F82024C3F82424C3F82824C3F82C247A
:10225000C3F8302462B67047012300F01F02934098
:10226000400941B1800000F1604000F56140C0F8D4
:10227000803103607047024A203042F820307047B6
:1022800000E100E001224309034900F01F00824001
:10229000403341F82320704700E100E0F8B50D46D7
:1022A000EFF3108772B6124ED6E8CF2F0123002A23
:1022B000FAD1C6E8423F002AF6D1BFF35F8F0D4B3B
:1022C00000F110049B680C4A53F82430934203D069
:1022D000994201D001F04CFA064B9B6843F8245018
:1022E000BFF35F8F0023C6E88F3F87F31088F8BDE8
:1022F000DD21012000ED00E0110100102DE9F04F7B
:1023000081468B46164683B0EFF3108372B6DFF832
:10231000D0A10093DAE8CF1F01230029FAD1CAE83F
:10232000413F0029F6D1BFF35F8F664B93F9004020
:10233000002CC0F2A080644D04EB440705EB870835
:1023400098F8061009F110091970604BBF009B68DE
:1023500053F829006300411B2F292FD95C4988427B
:1023600040F0A4801C445B4B02372F44043BDB1B32
:10237000C3F34A036FEAC3434FF421416FEAD343E7
:1023800025F8241005EB840463804BF60153A380E9
:10239000FF2348F00100E671C4F808B0A3714B4B6D
:1023A0009B6843F82900BFF35F8F0023CAE88F3F83
:1023B000009B83F3108803B0BDE8F08F20F0010E7E
:1023C0009EF80710B1422ED84FF42143EB53414BF6
:1023D000B91C2944043B04375B1A2F44AEF10401B5
:1023E000C91BC1F34A043C49C3F34A030B432143CD
:1023F000A8F804103949A8F802304AF6AA20734612
:102400005B1B5B415843000D88F8076088F80600A5
:10241000C8F808B048F00100CEF80010BFE7D17945
:10242000B1422ED996469EF906C00CEB4C02BCF187
:10243000000F05EB8202F2DA4BF601510EF10402B5
:10244000A8F10407BF1AC7F34A076FEAC7476FEA44
:10245000D7478EF8064003EB0408204C05EB8803B1
:10246000AEF8047045F82840998083F806C0DE7104
:10247000C3F808B093E701F07BF9124B93F90040E1
:1024800059E7724632F8041F490514D44915023140
:1024900002EB410101916FF00701C91B019F491B2C
:1024A0003944C1F34A0141F46041C9E7019301F0A5
:1024B0005FF9019B56E701F5FF1101F5FF511F314F
:1024C000E4E700BF701C0420140C002000ED00E0C5
:1024D00011010010440C002000E0FFFF014880477C
:1024E000DD2101202DE9F04F83B0EFF3108A72B6A1
:1024F000714ED6E8CF2F0123002AFAD1C6E8423F19
:10250000002AF6D1BFF35F8F6C4B00F110089B6877
:102510006B4A53F82850954245D08D420C4650D016
:10252000684FEB1B2F2B3ED801214FEA50194FEA81
:10253000890909F1604909F5614900F01F0301FAB1
:1025400003F0D9F80030C9F8800000EA030BBFF3AC
:102550005F8FEFF30581C9B2002934D0884505D0DB
:10256000CDE9001001F004F9DDE9001025F0010EBD
:10257000DEF808C0644505D189E0D3F808C0644599
:1025800031D09E469EF9062002EB4203002A07EB5B
:102590008303F2DA644561D0BBF1000F20D0C9F8A3
:1025A0008001C9F80000454B9B6843F82850BFF3F1
:1025B0005F8F0023C6E88F3F8AF3108803B0BDE821
:1025C000F08F1546EFE725F0010EDEF808C06445F0
:1025D000D8D19EF906407346002C08DA154646E02D
:1025E000C9F88000DFE793F90640002C37DB04EBE5
:1025F000440C07EB8C0C9CF80710DCF80820D97110
:102600009A609CF906206100002A9A713DDBBCF8B3
:1026100004E05FEA4E5E05D50EF5FF1E0EF5FF5E87
:102620000EF11F0E6FF0070C0A194FEA6E5E920052
:1026300002EB4E0208323A44ACEB030C6244C2F3A4
:102640004A026FEAC2426FEAD2429A801E4B21448C
:102650001A7807EB81011C708A719DE77346D9B91E
:10266000FF228EF806204BF60152AEF80420164CDD
:102670004AF6AA2294F800C01946C91B49414A43A8
:10268000120D83F806C0227086E7104ADDE79EF936
:1026900006407346002CAADA0D4A0E4CD21A083AAC
:1026A000C2F30A316FEA01516FEA115144EA520252
:1026B000DA80998070E700BFDD21012000ED00E0A5
:1026C00011010010140C0020701C042001BDFFFF3C
:1026D0004E0C002000F8FFFF4FF0FF0C20F003032A
:1026E00003F1604303F5644300F003001A68C0007F
:1026F0000CFA00FC22EA0C0281400A431A6070477F
:10270000F0B5EFF30585EDB2EFF3108C72B6264904
:10271000D1E8CF2F0123002AFAD1C1E8423F002A95
:10272000F6D1BFF35F8F214E40F0010EB4684AF638
:10273000AA2354F825701E4A0446A41A6441634330
:102740001B0D77455BB21BD092F906409C421CD012
:1027500092F912409C4223D092F91E409C4221D013
:1027600092F92A409C4208BF03240FD0114A00244A
:10277000157813708571C1E88F4F8CF31088F0BD08
:10278000B2680D4C42F82540F0E7002404EB440405
:1027900002EB8402FF2494714BF601549480E5E728
:1027A0000124F3E70224F1E7DD21012000ED00E040
:1027B000140C0020701C0420110100100146024876
:1027C000C1F13301FFF7E0BC711C042010B5074CC8
:1027D00082B001460523002200940548FFF794FCCF
:1027E0000028A8BFC0F1330002B010BD80C7071099
:1027F000711C042070B504460E461546FFF7ECFC2C
:102800000146204600F006F8A680E580BFF35F8F02
:1028100070BD00BF014B0B4403607047D421012001
:10282000F8B5124C124DAC4211D24FF0FF360027D2
:1028300023686BB1FFF7D0FC01462046FFF7EAFFA3
:1028400066602772BFF35F8F0C34AC42F0D3F8BDE3
:10285000FFF7C2FC01462046FFF7DCFF6660BFF3CE
:102860005F8F0834AC42E3D3F8BD00BFDC13002017
:10287000EC13002010B50446FFF7AEFC01462046DD
:10288000FFF7C8FF4FF0FF32002362602372BFF3EF
:102890005F8F10BD000000002DE9F04F2DED028B81
:1028A00085B0EFF30583DBB2103B9A0818BF012215
:1028B0004FF0010103F0030B18BFAF4DAF4B08BF42
:1028C000AF4D0BEB820253F8226001FA0BF205F5D3
:1028D00041539FEDA78B01925A602FE0B3881C04EF
:1028E00040F19380B379002B40F0DD80B6F90820E9
:1028F000002AC0F21E81736902EB420203EBC2039D
:10290000D3E90247B7F1FF3F08BFB4F1FF3F0ED054
:1029100005EB8B01AB6A0A69D21AE31A934205D31D
:1029200001232A6A03FA0BF3134200D10C612846F3
:1029300000F04CFDA042B941C0F2FB80B6F908306E
:10294000019A002B0093EA63C8DBD6F8148003EBEE
:102950004309284608EBC907D7E9024A00F036FDCB
:10296000A04271EB0A01B9DBBAF1000FC0F2C380DB
:10297000D7E90431834A934200F0ED807A88B6F9B2
:10298000080092B242EA0040984702460B4652EADB
:10299000030100F0B080002B80F2D180B4EB020E76
:1029A0006AEB030A38F93930C7E902EA002B95DBF4
:1029B000716903EB430201EBC202D2E90270BE452A
:1029C0007AEB000C4FEA430288DBB4462CF8083F50
:1029D00006E003EB430001EBC0005A00D0E90270AF
:1029E000BE451A447AEB000001EBC20404DB31F966
:1029F0003230A446002BECDA28F83930009BACF8D2
:102A00000030B3881C043FF56DAF3369EFF31082DB
:102A100072B6D3E8CF0F01210028FAD1C3E8401FD6
:102A20000028F6D1BFF35F8F4FF6FF74B088002304
:102A3000316900B2B480C1E88F3F82F310889842B8
:102A4000FFF650AF0746A946746906F1080807EB80
:102A5000470E04EBCE03D3E90250B6F90830C44662
:102A6000002B13DBB246009704E034F9363094466D
:102A7000002B09DB03EB430604EBC602D2E902712B
:102A8000BD4270EB0101F0DA5646009FACF80070D1
:102A900034F93E7024F83E30002FD8DAB3794D4631
:102AA000002B3FF423AF0023B371B6F9083006F1D1
:102AB0000808581C3DD01A46776903E08046591C27
:102AC0003FF416AF03EB430107EBC100B0F802C0BF
:102AD0001C461CF4004F9E4637F93130EED094422C
:102AE00080ED028B05D0A8F80030328927F831201C
:102AF00034817246E3E738F8393033813369EFF3D4
:102B0000108272B6D3E8CF0F01210028FAD1C3E8B2
:102B1000401F0028F6D1BFF35F8F7388316928F812
:102B20003930009B73800023C1E88F3F82F3108807
:102B3000D4E640BF05B0BDEC028BBDE8F08F28465F
:102B4000CDE9022300F042FC029A039B10EB020E37
:102B500043EB010A26E708460B69029198470028D3
:102B6000C9D00299D1E9002311E700BFAFF300807B
:102B7000FFFFFFFFFFFFFFFF00800B40DC0F022085
:102B800000000B40992800100B4808B50368EFF3CC
:102B9000108172B6D3E8CFCF0122BCF1000FF9D17A
:102BA000C3E84C2FBCF1000FF4D1BFF35F8F03F0EB
:102BB000CBFE0020002108BD6C1B02202DE9F84F40
:102BC000364C25692DB1BDE8F84F0A213448FFF78E
:102BD00021BEDFF8E4800321404600F0C3FB03265A
:102BE000C4F80C80FFF7F8FA4FF0504C2D4B2670CC
:102BF00003442361DCF800300F2163706369618056
:102C00001D834FF00405A3F878504FF00505A3F895
:102C100090504FF00605A3F8A8504FF007050E217D
:102C20004FF6FF7208274FF00A0EA3F8C0504FF07E
:102C300001094FF00C0C4FF0020B4FF0090A0D2068
:102C40004FF00B05A3F868111749A280A3F808E11B
:102C5000A160A3F848B0A3F8F0A0A3F82051A3F80E
:102C600038C1A3F85001A3F83090A3F86060A3F82E
:102C7000D8701A800D4B3046C8F820700C49DC60C3
:102C8000FFF70CFB49463046FFF7E6FA094B0A21ED
:102C90001F640348BDE8F84FFFF7BCBD5C0C002083
:102CA0006C1B0220D4210120FFFF1000DC0F02204A
:102CB0009928001000200B4000000B40004870478E
:102CC0005C0C00202DE9F041054618200C4601F06F
:102CD00089F90646002843D01821204601F09EF9C4
:102CE00001217061284600F05BFBF5600746FFF7A5
:102CF00073FA4FF050414FF6FF731B4A377002448E
:102D000032610A6833817270A2B27281013AB38073
:102D100072805CB1002204EB44047069A10020F8C9
:102D200012300C32013391429BB2F8D10F4C4FF06C
:102D300001082C1BB4FA84F4640907EB84040C4BDF
:102D400008FA07F720460B492F6243F8246005F57F
:102D50000155FFF7A3FA41462046FFF77DFA2F60A1
:102D60003046BDE8F08100BFD421012000800B4037
:102D7000DC0F0220992800101C4B984234D02DE91A
:102D8000F041C568DFF870800121A5EB0806B6FAAE
:102D900086F604460778760901FA07F305F54152ED
:102DA00007EB86062B6230461360FFF755FA304674
:102DB0000F49FFF797FB3946284600F0E5FAE3682C
:102DC0000025A3EB0802B2FA82F2237809495209DE
:102DD000606903EB820341F8235001F05DF920465E
:102DE000BDE8F04101F058B9704700BF5C0C00200D
:102DF00099280010DC0F022000800B40F8B59DF8E8
:102E00002050044617461E4635B900F0E7FA8742BF
:102E100066EB010100295CDB2169EFF3108372B6D8
:102E2000D1E8CF0F01220028FAD1C1E8402F0028B5
:102E3000F6D1BFF35F8FB4F90220656902EB42015E
:102E4000002A4FEAC10C206905EBC10139DB35F8D6
:102E50000CE0A4F802E04FF0000EC0E88FEF83F31F
:102E600010884888069B0130C0F30E00012838BF47
:102E700001200B61079B48804B61C1E9027640EA63
:102E800002402369EFF3108172B6D3E8CF7F0126A9
:102E9000002FFAD1C3E8476F002FF6D1BFF35F8F41
:102EA000A38825F80C30A2802369C3E88FEF81F353
:102EB00010880122E368217803F501538A405A60A3
:102EC000F8BD0022C0E88F2F83F310884FF0FF3049
:102ED000F8BD2846F8BD00BF0146F0B50069EFF324
:102EE000108772B6D0E8CF5F0124002DFAD1C0E878
:102EF000454F002DF6D1BFF35F8FB1F902E04C6969
:102F00000EEB4E0CBEF1000F4FEACC05086904EB46
:102F1000CC0C3CDB665B4E800026C0E88F6F87F3ED
:102F20001088BCF80200CCE902230130C0F30E0087
:102F3000012838BF0120059BACF80200CCF8103006
:102F4000069B40EA0E40CCF814300B69EFF3108278
:102F500072B6D3E8CFCF0127BCF1000FF9D1C3E897
:102F60004C7FBCF1000FF4D1BFF35F8F8B886353AC
:102F7000A1F804E00B69C3E88F6F82F31088012287
:102F8000CB68097803F501538A405A60F0BD0023ED
:102F9000C0E88F3F87F310884FF0FF30F0BD00BFCF
:102FA00003464089B0EB214F37DD58690A1402EB24
:102FB000420210B500EBC2001C69EFF3108C72B630
:102FC000D4E8CFEF0122BEF1000FF9D1C4E84E2FB3
:102FD000BEF1000FF4D1BFF35F8F428889B292B285
:102FE0008A4207D000221B69C3E88F2F8CF3108818
:102FF000002010BD42F400424280012100221869E5
:103000009971C0E88F2F8CF310881C78DA68084615
:1030100002F50153A140596010BD0020704700BF68
:10302000407870472DE9F043B0F1960541F1FF3744
:10303000A84271EB070338BF002583B038BF2F4685
:1030400004460E4600F0CAF9281A67EB010C012865
:103050007CF1000C06DA2046314603B0BDE8F043AF
:1030600000F0F4B900F0BAF9854267EB01010029DC
:103070000ADB0021154B2A46009315483B46019177
:10308000FFF72AFF0130E6D0DFF84C80DFF84490EC
:10309000D8F824309F4205D8D8F82820AA42DAD29E
:1030A0009F42D8D1D9F80030EFF3108172B6D3E83F
:1030B000CF0F01220028FAD1C3E8402F0028F6D113
:1030C000BFF35F8F034803F009FCE1E7892B001091
:1030D0005C0C00206C1B022000000B402DE9F0432B
:1030E00083B004460E4600F079F94FF0FF326FF0DE
:1030F0000043241846EB0106A24273EB06013CBFD5
:1031000014461E46B4F1960546F1FF37AC4276EB05
:1031100007033CBF00252F4600F060F9281A67EB33
:10312000010C01287CF1000C06DA2046314603B080
:10313000BDE8F04300F08AB900F050F9854267EB32
:10314000010100290ADB0021154B2A46009315488E
:103150003B460191FFF7C0FE0130E6D0DFF84C801E
:10316000DFF84490D8F824309F4205D8D8F82820BA
:10317000AA42DAD29F42D8D1D9F80030EFF31081B9
:1031800072B6D3E8CF0F01220028FAD1C3E8402F4E
:103190000028F6D1BFF35F8F034803F09FFBE1E700
:1031A000892B00105C0C00206C1B022000000B40DF
:1031B0002DE9F04383B0064600F010F94FF47A731E
:1031C00004464FF0FF306FF00042E6FB0341A0429F
:1031D00072EB01033ABF044615460D46B4F196065C
:1031E00045F1FF37B44275EB07033CBF0026374675
:1031F00000F0F4F8301A67EB0101012871F10001C9
:1032000006DA2046294603B0BDE8F04300F01EB9B7
:1032100000F0E4F8864267EB010100290ADB002197
:10322000154B3246009315483B460191FFF754FE7B
:103230000130E6D0DFF84C80DFF84490D8F8243035
:103240009F4205D8D8F82820B242DAD29F42D8D17E
:10325000D9F80030EFF3108172B6D3E8CF0F012216
:103260000028FAD1C3E8402F0028F6D1BFF35F8FC2
:10327000034803F033FBE1E7892B00105C0C0020CE
:103280006C1B022000000B402DE9F04306460D4662
:1032900083B0EFF30584E4B23CB12D4B5A6AAA42E5
:1032A0001CD2002003B0BDE8F0832A4FD7F80C9061
:1032B00097F80080484600F089F808F1040859F8AA
:1032C00028301B1A301A65EB0101984271F1000198
:1032D00010DB20BF1E4B5A6AAA42E2D314BF01245E
:1032E00000249B6AB34234BF204644F0010003B07F
:1032F000BDE8F08300F072F8864265EB0101002919
:1033000014DB154B3846CDE9003432462B46FFF727
:10331000E3FD011E0ADD0E4B5A6AAA4216D39B6AD0
:10332000B34211D30B48FFF73BFEB6E7084B5C6A8C
:10333000AC42B6D3641B18BF01249B6AB34234BFAE
:10334000204644F00100ADE7AA42EBD120BFE9E7F7
:1033500000000B405C0C0020892B001000487047D7
:1033600000000B4010B4054B054C064AA04214BFA8
:103370001846581C5DF8044BFEF79ABE3022012017
:1033800000800B409CC70710034B044A904214BFB7
:103390001846581CFEF7F8BE3022012000800B4072
:1033A00010B5074A074B084C82B0A04214BF104624
:1033B000501C009300220323FEF7A6FE02B010BDAE
:1033C00030220120C0C7071000800B400346416A2D
:1033D0000A46986A596A8A42FAD17047034B596A79
:1033E0000A46986A596A9142FAD1704700000B4028
:1033F00030B4154A536A9C46946A536A6345FAD1BD
:10340000021959414FF0000528BF01250E4B5B6A98
:10341000B5B15A1C08BF1A4608D04FF0FF310A4612
:103420000948436A8B42FCD38B4207D1064902E02C
:10343000486A984202D1886A9042F9D330BC7047FA
:103440009942EDD8F0E700BF00000B40074A536AED
:103450009942FCD8994207D1044B02E05A6A914242
:1034600002D19A6A9042F9D8704700BF00000B4021
:10347000F8B5054606200E4600F0E4F8002842D0D4
:10348000354A3648954214BF4FF080624FF00062D3
:10349000334B344902601A608C6832EA0404FBD171
:1034A0002D4B4FF48071EB1AB3FA83F32E4A5B096C
:1034B000062022F8131000F0C5F8C300B3FBF6F3A2
:1034C0000133DA0920D1402601216962AA622F6BFB
:1034D000FB0722D42B46002253F82C1F062003F5AD
:1034E000805422602F6300F0ADF840F201310322D6
:1034F0008000B0FBF6F0EB6A83F0700303F07E030C
:1035000023602963AA64F8BD4FF6FE718A421BD975
:1035100022464FF6FF71154ED7E740F2013205F50E
:1035200040531A636B6AAC6A062004EB831400F004
:1035300089F80F4BA402A3FB0023DB0A0021B4FB94
:10354000F3F0FFF755FFC5E7C3F34503114603EB5F
:1035500082161A46B9E700BF0080074000200240EB
:103560000030024000000240741B0220C0FF3F00F8
:10357000757B2B8F00EB400C4FEA8C0C0CF1804CD0
:103580000CF5803CF0B51646DCF80420051FB2F5BA
:10359000803F38BF4FF48032EDB238BFCCF8042002
:1035A000012D2AD94FF40067254C0CF540521760C5
:1035B00054F82020B2B9DCF80020012D82EA46122E
:1035C00002F0E0020CF5805632602AD94FF4006117
:1035D00044F820304FF480330CF500521160CCF8E1
:1035E0000430F0BD6769B7FBF2FE0EF1010E0EEB81
:1035F0004E0EBEF1030EFCD2DDE70129D2D1032429
:103600000CF540521460DCF80820D207FBD5DCF83A
:1036100000200B4C82EA461202F0E0020CF58056C4
:1036200032600122DCF800504D4005F003053560A2
:1036300002FA01F1DCF808200A42FBD0C6E700BF1D
:1036400038220120014B53F8200070473822012016
:1036500070B4039D04682D0345EA03451B4B002C01
:10366000B3FBF1F3B2FBF3F61FDB194A194B90429F
:1036700014BF4FF480424FF40042174C1A6003F518
:1036800080531A60A36832EA0303FBD1212200F5BC
:1036900040530433016086601A600268002AFCDA35
:1036A0000822C5601A6070BC7047036803F03F03CE
:1036B0008B42DAD18368C3F30B03B342D5D1C3681D
:1036C00003F4EE23AB42D0D1EDE700BF001BB700FF
:1036D000008005400020024000000240012300EB72
:1036E0004000800000F1804000F5841041600360DC
:1036F000704700BF0023DB8A002242E800F252023A
:1037000001D4102118470421184700BF034AD2F8FA
:103710002838002BFBD0BFF35F8F704700000E40AE
:103720000021044B044ABFF35F8F43F8041B93420C
:10373000F9D170470C080E402C080E4010B44FF41D
:103740008D704FF42A64064A064B07491460D06016
:1037500019605368002BFCDA5DF8044B704700BF1A
:103760000080044000A0044000B0FA00704700BF91
:1037700008B50148FEF768FCD4C7071038B5054CFA
:10378000054DAC4204D254F8043B9847AC42FAD3FE
:1037900038BD00BFA0B80710E0B8071010B4074844
:1037A000074C084B084A094904601A608B6832EAE2
:1037B0000303FBD15DF8044B704700BF00200240BB
:1037C0007F3BEFEF00300240F6FFF30300000240C2
:1037D000044BDB6CB3F5004F03D14FF48022024B56
:1037E000DA64704700001150002011504FF0E022C1
:1037F000044BD2F8881D0B43C2F8883D10EE30040C
:10380000704700BF030330006FF06041044B054A6E
:1038100019609368DB4333F06043FAD1704700BF0F
:10382000003002400000024010B545F25320FFF77F
:1038300061FFBDE8104003460420184710B545F26B
:103840005320FFF757FFBDE81040034601201847FB
:10385000FEF7D6BC1449154B70B55C1AA610442E61
:10386000324628BF4422124D9200284673F0B0F829
:10387000B4F5867F13D80F4AC6F1440012D02B1935
:10388000410803EBC101C3E9002208338B42FAD19E
:10389000C30704D520F00100304445F82020064B32
:1038A0009D6070BD4320F8E700000010100100107B
:1038B000000000201101001000ED00E0002370B5B1
:1038C0002B4C82B0C4F88430FFF738FF0122294B1B
:1038D000DA63636C012BFCD10321264A244B11636C
:1038E0009C6B012CFCD10226052521460523224A8A
:1038F00022480096FFF7ACFE21462B46204A21487D
:103900000095FFF7A5FE0022042031461E4BFFF76D
:1039100031FE2146284600221C4BFFF72BFE0022D9
:10392000082011461A4BFFF725FE002209201146F8
:10393000174BFFF71FFE002206201146134BFFF71F
:1039400019FE0022114B07201146FFF713FE042039
:10395000FFF778FE00240F4BA3FB0035AD0CE0B25F
:1039600029460134FFF7BAFE062CF8D102B070BD2B
:103970000000014000300140002F68590000054060
:10398000008C864700800540001BB70080D1F008FE
:10399000006CDC0283DE1B4386B003B451FC0804D8
:1039A000CDE9020151FC0904CDE9040151EC0A04FE
:1039B000CDE9060103BCF047BDE800504EEC00C461
:1039C000BDE800504EEC01C4BDE800504EEC02C40E
:1039D00000BD000000B5FFF7DFFF02E010FE30F48D
:1039E000F8D441EC100443EC112400EE010410EE75
:1039F000010480EE200451EC1004704700B5FFF77D
:103A0000CBFF02E010FE30F4F8D441EC100443EC9C
:103A1000112400EE010410EE210480EE200451EC8C
:103A20003004704700B5FFF7B7FF02E010FE30F436
:103A3000F8D410B541EC100443EC112451EC04040B
:103A400053EC0524A0FB024C5FF0000EE0FB03CE1C
:103A5000E1FB02CE4CEC20440024E1FB03E444EC07
:103A600030E480EE200451EC5004BDE81040704773
:103A700000B5FFF791FF02E010FE30F4F8D441ECFE
:103A8000100443EC112451EC2104A0FB01126FEA55
:103A9000820252FB100052FB12F252FB1000A0EB0C
:103AA000D07C53EC04245CFB13F153EC1524A1FBF4
:103AB000022001FB030053EC4424A2EB000050FB66
:103AC0001CF24FEA111312EB017043EBE27140EA72
:103AD000515020EA915020F0070053EC7524A0FBD0
:103AE000023C53EC752400FB03CC01FB02CC53ECED
:103AF0000424ACEB824C40EA5C70A0F1010041EC84
:103B0000400480EE200451EC7004704700B5FFF7CC
:103B100043FF02E010FE30F4F8D441EC100420EE34
:103B2000010453EC4124A2FB0201A1FB03014FEA73
:103B3000C101A1F1004162FB1122A2FB0201A1FB24
:103B40000301000F40EB011151FB12F0A2EB6002E8
:103B5000A2FB03014FEA5101A1FB01305CEC6404BC
:103B6000A0EB030353FB12F301EB23714FEA0313A2
:103B700023F0FF0343F08003A3FB03C201FB01FC1E
:103B8000E1FB032CE1FB032CACEB000C43EA1C63D0
:103B9000A3F10B0341EC503480EE200451EC90046F
:103BA000704700BF00B5FFF7F7FE02E010FE30F4EB
:103BB000F8D441EC100480EE220410EEB2047047F9
:103BC00000B5FFF7E9FE02E010FE30F4F8D440EC57
:103BD000700400EE010410EE210480EE200451EC8C
:103BE0003004704700B5FFF7D7FE02E010FE30F456
:103BF000F8D440EC600400EE010410EE210480EEE5
:103C0000200451EC3004704700B5FFF7C5FE02E018
:103C100010FE30F4F8D441EC800400EE010410EE04
:103C2000010480EE400410EE1304704700B5FFF766
:103C3000B3FE02E010FE30F4F8D441EC800400EE54
:103C4000010410EE010480EE400410EE33047047CE
:103C500000B5FFF7A1FE02E010FE30F4F8D441EC0D
:103C6000100443EC112400EE010410EE3004C0F304
:103C70000070704700B5FFF78FFE02E010FE30F4D1
:103C8000F8D441EC100443EC112400EE010410EED2
:103C90003004C0F38070704700B5FFF77DFE02E08E
:103CA00010FE30F4F8D443EC102441EC110400EE83
:103CB000010410EE30F48CBF01200020704700BFDB
:103CC00000B5FFF769FE02E010FE30F4F8D443ECD3
:103CD000102441EC110400EE010410EE30F42CBF6E
:103CE00001200020704700BF00B5FFF755FE02E03D
:103CF00010FE30F4F8D441EC100443EC112400EE33
:103D0000010410EE30F42CBF01200020704700BFEA
:103D100000B5FFF741FE02E010FE30F4F8D441ECAC
:103D2000100443EC112400EE010410EE30F48CBFBB
:103D300001200020704700BF0022002950DA4042D5
:103D400061EB4101C9B1B1FA81F30B3B17D4D3F157
:103D5000200C30FA0CFC9840994051EA0C011A44AE
:103D6000524202F2324201EB025141F0004140F274
:103D7000FE739A4238BF704721E011467EE003F19E
:103D8000210310FA03FCA3F1010301FA03FCC3F1C0
:103D9000200320FA03F021FA03F140EA0C00A3EB20
:103DA000020202F2324214D050F1000041EB025103
:103DB00041F0004140F2FE739A4238BF70474FF025
:103DC0000001A8BFC7F6F0714FF000007047002156
:103DD0007047EBD350F1000020F00100E6E700222D
:103DE000B9B1B1FA81F30B3B16D4D3F1200C30FA00
:103DF0000CFC9840994051EA0C011A44524202F2DC
:103E0000324201EB025140F2FE739A4238BF7047D2
:103E100020E0114600F066B803F1210310FA03FC1C
:103E2000A3F1010301FA03FCC3F1200320FA03F01C
:103E300021FA03F140EA0C00A3EB020202F2324243
:103E400012D050F1000041EB025140F2FE739A4251
:103E500038BF70474FF00001A8BFC7F6F0714FF0B0
:103E60000000704700217047EDD350F1000020F0B2
:103E70000100E8E7002880F235804042B0FA80F384
:103E80000B3B11D4984001EB0302524202F2124262
:103E900000EB025141F000414FF0000040F2FE7390
:103EA0009A4238BF704713E0C3F1000330FA03FCB5
:103EB000C3F120029040A3EB010202F212420CEB8C
:103EC000025141F0004140F2FE739A4238BF704700
:103ED0004FF00041A8BFCFF6F0714FF000007047DF
:103EE0000021704760B3B0FA80F30B3B0FD49840C9
:103EF00001EB0302524202F2124200EB02514FF078
:103F0000000040F2FE739A4238BF704710E05B42F7
:103F100030FA03FCC3F120029040A3EB010202F24D
:103F200012420CEB025140F2FE739A4238BF7047C6
:103F30004FF00001A8BFC7F6F0714FF000007047C6
:103F4000002170470022A2F232425FEA215CACF10C
:103F50000103A1EB03515B0513F5800F32D212EB85
:103F6000535210D40B2A36DA9140D2F1200330FAA2
:103F700003F319439040BCF1000FA8BF70474042C3
:103F800061EB4101704720320EDD01FA02F3D2F1FC
:103F90002002D140D0401843BCF1000FA8BF7047A9
:103FA000404261EB41017047524282F3050231FA0F
:103FB00002F00021BCF1000FA8BF7047404261EB46
:103FC0004101704702D000200021704750EA0131C2
:103FD00018BF4FF0000C6FF0004101EBDC716FEA8D
:103FE000EC70704738B50446094877F035FC204638
:103FF00071F088FB0546064877F026FC2DB1054B8D
:104000002C449C4201D8284638BD0348FEF71CF8D2
:10401000DC13002000000820E0C7071070B504463C
:104020000E460B4877F018FC3146204671F02AFB0B
:104030000546074877F008FC06FB04F42DB1054B54
:104040002C449C4201D8284670BD0348FDF7FCFF74
:10405000DC13002000000820E0C7071038B5054633
:104060000C460A4877F0F8FB2846214671F022FEFC
:104070000546064877F0E8FB2DB1054B2C449C42E1
:1040800001D8284638BD0348FDF7DEFFDC130020C9
:1040900000000820E0C7071010B50446054877F077
:1040A000DBFB204671F036FBBDE81040014877F09D
:1040B000CBBB00BFDC1300209A4238BF8854704746
:1040C000704700BF2DE9F04F83B09946DDE90DAB95
:1040D0000F9B884611469A07074616D1DA453AD211
:1040E0000C460D46ABEB0A060E4422464B464146B3
:1040F00020200134B847B442F7D12946BAF1000F65
:1041000008D1204603B0BDE8F08F0C46BAF1000F8D
:1041100010D00E4655460C9B2E449A440191721BBA
:104120004B46013D41461AF8010D3446B847002D73
:10413000F5D101990F9B9B07E3D5651AAB45E0D9F3
:1041400022464B46414620200135B8475D4504F1E3
:104150000104F5D3D5E70C46BAF1000FD9D1D0E769
:104160002DE9F04F0F9FDDF8248017F0020F0A9C15
:104170009DF82CA00E9DDDE90C9644D1F5BBB44210
:1041800041D207F0010B04F1FF3C4FF0300EC44464
:1041900004E00134A6420CF801EF01D9202CF8D13B
:1041A000BBF1000F00F08880A5422CD904F1FF3C40
:1041B0004FF0300EC44404E00134AC420CF801EF7F
:1041C00021D0202CF8D117F0100F0ED017F4806FEB
:1041D00054D1A64263D0A54261D0B9F1100F50D09E
:1041E000B9F1020F56D0202C29D12024CDE90B574C
:1041F000CDE90984BDE8F04FFFF764BF17F0010B6C
:1042000034D1B442BFD317F0100F1ED017F4806F13
:10421000E3D1002CDDD1B9F1100F63D0B9F1020F59
:1042200077D0302488F800400124BAF1000F11D172
:104230007E0748D52B2608F804600134D6E72646C9
:1042400001344FF0300C08F806C0202CCDD0BAF164
:10425000000FEDD02D2608F804600134CDE90B578E
:10426000CDE90984BDE8F04FFFF72CBFBAF1000F8C
:1042700030D0B44205F1FF3585D395E7B9F1100F81
:10428000B3D1BE063BD5202CAFD0582608F8046029
:104290000134A8E7202CA8D02646013407E0661E8A
:1042A000B9D0B9F1100F36D0B9F1020FC9D14FF022
:1042B000620C08F806C096E717F0100FC5D017F487
:1042C000806F86D089E73E0790D5202608F80460E5
:1042D00001348BE717F00C0F00D0013DB442FFF41E
:1042E00052AF61E7BC0612D4782488F8004030242D
:1042F00088F801400224BAF1000F99D0AAE7202CD7
:104300003FF473AF782608F8046001346BE7582453
:10431000EBE76224E9E717F0200FA4F1020C04D0C8
:104320004FF0580E08F80CE08BE74FF0780E08F8C5
:104330000CE086E700B9704701F086BC10B1D1E906
:1043400000311847704700BF2DE9F04F97B09DED41
:10435000207BDDE9225B0746884651EC170B249C45
:1043600099460C920B4602468DED047B0794FFF7AD
:1043700073FC002840F0F481DDE904014FF0FF32C6
:104380006FF48013FFF78CFC002840F01B81DDE9FF
:1043900004014FF0FF32AC4BFFF7BEFC002840F0A9
:1043A000EE80DDE90401A4A3D3E90023FFF7B4FC08
:1043B000002840F0D380DDE90401A1A3D3E9002364
:1043C000FFF76EFC002840F0C980DDE904010022FF
:1043D0000023FFF765FC002840F0E88023460D909D
:1043E00013F4806F08BF062530212B460EAAA5F1D5
:1043F000200605E0013BB34202F8011B00F0938167
:10440000092BF7D81E46ED1ADDE90401FFF700FC81
:104410008E4B044603EBC60393ED007B8DED087BCA
:10442000FFF7D2FB02460B46DDE90401FFF7EAFA8B
:10443000DDE90823FFF7FAFA02460B46CDE90A2325
:10444000FFF7F8FB8246FFF7D1FB02460B46DDE99A
:104450000A01FFF7D7FA02460B46CDE90A230022EC
:104460007B4BFFF759FC002800F0FE800AF1010A9F
:104470005046FFF7BBFB02460B46DDE90801FFF79C
:1044800023FC10B14FF0000A0134002E00F0FD8033
:10449000681E0EABDFF8CCC118440FE0ACFB0A215C
:1044A000C90801EB8102AAEB42023032BAF1090FCE
:1044B00000F8012F40F21C818A461D46202D05F18F
:1044C000010306F1FF36E9D12025691E0EAB6148D4
:1044D000194410E080FB0462C3EBA20303EB8302E8
:1044E000A4EB420404F1300201351C4601F8012F0F
:1044F000002B00F0EB80202D4FEAE473EAD1079BFC
:1045000003F00303012B18D1BBF1000F15D00D9B55
:10451000002B00F00A810BF1FF3BBBF1200F0CD9FF
:104520006B1E0EA930220B4405E001355D4503F8F2
:10453000012F80F0D180202DF7D1079B0EACCDE963
:1045400002B341464B4638460C9A01950094FFF75A
:10455000B9FD8246504617B0BDE8F08F079B9DED30
:10456000047BCDE923B341464B4638460C9A8DED8A
:10457000207B229517B0BDE8F04F00F045B96107E8
:1045800023464CBF042303234146219338464B4620
:10459000079A48BF304CCDE922B258BF2F4C0C9A35
:1045A000209417B0BDE8F04FFFF78CBDDDE9042380
:1045B00000200021FFF726FA0123CDE904010D9325
:1045C00023460DE723469C0740F0AA80BBF1040F69
:1045D00040F2A6800C9B1D461C1F04EB0B0A2A46CA
:1045E0004B46414620200135B847AA45F7D15546EC
:1045F0001B4C261F14F8010D2A464B464146B8476E
:10460000B44205F10105F5D1079B0AF1040A9807A8
:10461000A0D50C9CAAEB04039B459BD952464B4664
:10462000414620200AF1010AB847AAEB04035B4582
:10463000F4D38FE7AFF300800000000065CDCD41DB
:104640000000000065CDCDC1FFFFEF7F60DC0710EB
:104650000000E03F6766666630C8071038C807107C
:1046600044C80710CDCCCCCC0022DDE90A01634B55
:10467000FFF716FB00287FF408AFBAF1000F6AD1EC
:104680000AF1010A002E7FF403AF2046FFF79CFADF
:1046900002460B46DDE90401FFF7B4F902460B467A
:1046A000CDE904230022554BFFF7FAFA00287FF4E6
:1046B0000CAFDDE904010022504BFFF72DFB002871
:1046C0007FF403AF013424F00104FEE6079B03F0FE
:1046D0000303012B00F08280202D3FF42EAF0D9BB1
:1046E0007BB32D220DEB050383F83820013524E739
:1046F000202B3FF4E9AE0EAA15441E44302204E0FC
:10470000202B05F8012F3FF4DFAE9E4203F1010399
:10471000F6D12E220DEB060383F83820751CD4E663
:10472000DDF830A063E720256EE6079B13F00C0F41
:1047300050D00BF1FF3BAB453FF6F2AE202D3FF4DE
:10474000FCAE079B5A0701D52B22CBE71B077FF551
:10475000F4AE2022C6E71AF0010F3FF496AE8FE7C1
:10476000A60734D1BBF1030F31D90C9B1D46DC1ECB
:1047700004EB0B0A2A464B46414620200135B84738
:104780005545F7D155461E4CE61E14F8010D2A4634
:104790004B464146B847A64205F10105F5D1079BB6
:1047A0000AF1030A9D077FF5D5AE0C9CAAEB040322
:1047B0009B457FF6CFAE52464B46414620200AF13C
:1047C000010AB847AAEB04039B45F4D8C2E6DDF81A
:1047D00030A0D7E7AB453FF6A3AEAEE6BBF1000F86
:1047E0003FF47AAF0D9B002B9FD00BF1FF3B5D4553
:1047F000FFF496AE202D7FF474AF9EE60000E03FFC
:104800003FC80710000000002DE9F04F9FB02A9E1E
:10481000DDE92845074693460891099322462B4631
:10482000204629460E96DDE92BA6FFF715FA00284B
:1048300040F0BE80204629464FF0FF32784BFFF70C
:104840006BFA002840F0B480204629464FF0FF3232
:104850006FF48013FFF724FA002840F0A980204667
:10486000294600220023FFF71BFA002840F0D581DB
:10487000CDE90A45DDE90A239046994606F400622F
:1048800016F480630F92139340F0A18058EA090355
:1048900040F0CA80002A40F0E38106230E9316F010
:1048A0000202109240F0D4815346042B38BF0423F7
:1048B0000C920422043B12920F93204629460022B8
:1048C0000023FFF7EDF9002840F0F3819DED0A7B0E
:1048D0000F9B5A4603930E9B8DED007B029326F4AB
:1048E000006304933846099B0899FFF72DFD0246A3
:1048F00016F0200F099B08990CBF6520452002F196
:104900000108B8470C9A129B16AC5D1E82EAE2734E
:10491000A3EBE273D10F002622469946DFF804C1CB
:1049200001E0202E10D0CE46ACFB0930C00800EBD1
:104930008003A9EB43033033BEF1090F814606F132
:10494000010602F8013BECD80523002006930A2358
:1049500005950094099D089C4246CDE90330CDE9B8
:1049600001612B4621463846FFF7FAFB109A804634
:10497000D2B1A0EB0B06B24516D90BEB06022B46C3
:10498000214620200136B847B245F6D80BF1FF3357
:104990005344CBF10102A3EB08034244924538BFD4
:1049A000002308F10108984440461FB0BDE8F08F8D
:1049B0005A463846CDE92845CDE92BA60E9C099BE1
:1049C00008992A941FB0BDE8F04FFFF7BDBC58EA24
:1049D00009032BD1002A3FF462AF00230C930E9BF6
:1049E0000C9A934200F3B9814FF000082046294603
:1049F00000220023FFF754F9002840F013819DEDB9
:104A00000A7B26F4006646F480668DED287B5A46C4
:104A10003846CDE92A8A099B08992C96D2E700BF2F
:104A2000FFFFEF7FCDCCCCCC06230E93C9F30A5009
:104A3000A0F2FF30FFF7C8F8C1A3D3E90023FEF7C7
:104A4000F5FFC1A3D3E90023FEF7C8FFC9F313099B
:104A5000CDE90C0149F07F5140460022B24B41F4B0
:104A60004011FEF7CFFFA4A3D3E90023FEF7DEFF3A
:104A700002460B46DDE90C01FEF7B0FFFFF7C8F870
:104A80000C90FFF7A1F89EA3D3E900238046894646
:104A9000FEF7CCFF0022A54BFEF7A0FFFFF7B8F80A
:104AA000034649464046129397A3D3E90023FEF7F5
:104AB000BDFF804612988946FFF786F894A3D3E994
:104AC0000023FEF7B3FF02460B4640464946FEF779
:104AD00099FF02460B4680468946FEF7A7FF4246ED
:104AE0004B46CDE9100140464946FEF777FF0022CC
:104AF000CDE91401DDE910018D4BFEF7BDFF002269
:104B00008C4BFEF76BFF02460B46DDE91001FEF70A
:104B1000B3FF0022884BFEF761FF02460B46DDE93A
:104B20001001FEF7A9FF42464B4680468946002009
:104B30004FF08041FEF766FF02460B46404649466D
:104B4000FEF74CFF02460B46DDE91401FEF794FF29
:104B500000227A4BFEF742FF129B002203F2FF3C39
:104B60004FEA0C53FEF762FF80468946DDE90A01F1
:104B700042464B46FFF794F850B10C9B4046013B30
:104B800049460C9300226B4BFEF776FF8046894620
:104B90000C9A43466332C62A06F002021092494636
:104BA0000F9A2CD8002A5ED0042212920B433FF4B5
:104BB00016AFDDE90A0158A3D3E90023FFF798F8FF
:104BC00048B1DDE90A0156A3D3E90023FFF768F8ED
:104BD00000287FF404AF0E9B002B50D0139A002ABC
:104BE0007DD0013B0E93129B9A4505D9109B002B5B
:104BF00000F0AE800223109300230F9344E022BB09
:104C0000BAF1050F4FD906F00203002B49D1052355
:104C10001293AAF105030F933AE005F100430A94B9
:104C20000B9327E626F4006646F4806638462C96F9
:104C3000DDE90A67344607F100455A46CDE92A8A7C
:104C4000CDE92845099B0899BCE605221292ADE7FB
:104C500000230222CDE90F3204220C9312922CE69B
:104C60004FF00508C2E6BAF1040F1FD9109B002BC4
:104C700078D104231293AAF104030F9304E0129B4A
:104C80009A4531D80E9B0F930C9B002B3FF415AE29
:104C9000DDE90A0142464B46FEF7EEFECDE90A0188
:104CA0000BE60223109305231293F1E704231293DA
:104CB000EAE7DDE90A45A0460F9B05F100490393A9
:104CC0000E9B5A46029326F4006304933846CDE9BE
:104CD0000089099B0899FFF737FB024608E6129BFB
:104CE0009A4544D80F92CFE7109B8BB30E9B0F933E
:104CF00002231093C8E700BF61436F63A787D23FC9
:104D000071A379094F930A401655B5BBB16B0240A8
:104D1000EF39FAFE422EE63F2D431CEBE2361A3FF6
:104D20000000000080842E410000F83F0000E03FBA
:104D300000002C4000002440000018400000F03F1C
:104D4000FB799F501344D33FB3C8608B288AC63F7A
:104D5000129BAAEB03030F9396E7A3EB020808F15B
:104D6000FF3843E604231293022310938CE7109B31
:104D7000002BEDD002230F92109385E72DE9F04F21
:104D80009BB0249C954D0A94954CB1F1000A18BF34
:104D9000834625601878934C914608BFA346099333
:104DA000002800F093824FF000080AE042464B468C
:104DB000514608F10108D847099B1878002800F0EF
:104DC000CE80099B252803F101030993EED11C46EF
:104DD0000023224612F8010BA0F1200110290AD865
:104DE000DFE801F04009093C090909090909093806
:104DF000093409093000A0F130010929099440F271
:104E00008A802A2800F0F08000252E2800F0968065
:104E10000026A0F1680112292DD8DFE811F0490120
:104E20002C0043012C0038012C002C002C002C00FD
:104E30002C002C002C0027002C002C002C002C0017
:104E40002C002700144643F00103C2E7144643F048
:104E50000203BEE7144643F00403BAE7144643F0E6
:104E60001003B6E7144643F00803B2E709994878FF
:104E700043F480730132672809927ED8242840F2D7
:104E8000C180A0F12502422A00F2BC80DFE812F0C6
:104E90005001BA00BA00BA00BA00BA00BA00BA00AB
:104EA000BA00BA00BA00BA00BA00BA00BA00BA0032
:104EB000BA00BA00BA00BA00BA00BA00BA00BA0022
:104EC000BA00BA00BA00BA00BA00BA00BA00BA0012
:104ED000190137011901BA00BA00BA00BA00BA00C4
:104EE000BA00BA00BA00BA00BA00BA00BA00BA00F2
:104EF000BA00BA00BA00BC01BA00BA00BA00BA00DF
:104F0000BA00BA00BA00BA00BA00BC015801BC012C
:104F1000190137011901002500E0013205EB850573
:104F200000EB45051078303DA0F130010929F4D996
:104F30002E28099202F101027FF46AAF099943F425
:104F4000806348781146A0F13006092E40F2218195
:104F50002A2800F02F8109920026013259E74446A1
:104F6000C14501D809F1FF384B4642465146002061
:104F7000D84720461BB0BDE8F08FA0F16902D2B23D
:104F80000F2A3FD8012149F241079140394040F0B2
:104F9000F3800A2A3DD0072A34D10A9D55F8042B04
:104FA000002A00F0138143F0210012AB1F460B933F
:104FB00003E0202900F014811A4602F00F04234672
:104FC000092C94BF303337330F2A07F8013B01F126
:104FD00001014FEA1213ECD802E100BF7D4D001031
:104FE000BC4F0120C14000100A99099851F8045B98
:104FF0004078002DCDE90921BCBF43F002036D428A
:10500000013202E742464B46514608F10108D847B3
:10501000D2E60A99002E51F8047B18BF3246387840
:1050200008BF4FF0FF32002800F07B83BC18A44675
:105030003A4604E012F8014F002C00F03F819445FD
:10504000F8D16446E41B5A0540F12281B44228BFDE
:10505000344613F0020300F088820223CDE90A519E
:1050600042461D46464408E04B465146D84717F88D
:10507000010F08F1010810B142464645F4D12B4614
:105080000B990A9D002B40F041810A9194E6099901
:1050900048786C287FF4ECAE0A46887843F4407375
:1050A0000332E8E6099943F4007348780132E2E6F6
:1050B00009994878682800F0038143F080030132A1
:1050C000D9E6672800F0D980472800F0DC80452821
:1050D00000F0DB80CDE903530A9B0296073323F0EF
:1050E00007031C464246F4E802674B4651465846C1
:1050F000CDE900670A94FFF787FB80465CE6462807
:1051000008BF43F02003CDE903530A9B02960733FF
:1051100023F007031C464246F4E802674B4651461B
:105120005846CDE900670A94FFF70EF9804643E63A
:1051300042464B465146252008F10108D8473BE638
:105140000A9A990702F1040408F1010640F1C680A9
:1051500010784B4642465146D847012D88BFA84497
:1051600040F2BD8132464B46514620200136D84799
:105170004645F7D10A941FE66F2800F0818040F27F
:105180004882782800F090810A2723F01003BC465B
:1051900041E0002606EB860600EB4600A0F1300653
:1051A00011F8010FA0F13002092AF3D90A4609913A
:1051B00001322EE6DDE9092151F8046B90780232C4
:1051C00009920A91013226EAE67622E623F01000DF
:1051D00013F4806240F021003FF4E7AE12AB0B9372
:1051E0000B9B069000930823102005930023424652
:1051F000CDE9023001914B46514658460496FEF7E0
:10520000AFFF0A958046D7E5582862D0622840F063
:105210008F800227BC4613F4806000F0DD8023F00D
:105220000D0313F4007240F081810A990F1D13F4ED
:10523000807140F037825C060A9A40F13B81127817
:10524000002A40F04E8123F01003002800F049812D
:10525000114612AA0B92CDE90553CDE903C601917F
:105260000B9B4246009300235146029358464B46FF
:10527000FEF776FF0A9780469EE543F4006329E730
:105280000827BC46C7E743F4006343F0200321E747
:1052900013F0020300F08E8102230A951E460D468C
:1052A00042464B465146D84717F8010F08F101080E
:1052B0000028F5D1294633460A9DE3E6D41BC2E611
:1052C0000A46887843F0C0030332D4E5044680469A
:1052D00046E6102743F02003BC469CE7012D40F230
:1052E000F880464608F1FF372F4432464B46514678
:1052F00020200136D847BE42F7D10A9B32461878A3
:1053000051464B46D847A8440A9455E54646A5421F
:105310007FF6BBAEA844A8EB04080C4632464B46C9
:10532000514620200136D8474645F7D12146ACE604
:1053300013F4806200F0BB804FF4806223F0110C04
:105340001CF400770A9B4AD11CF4807003F104041A
:1053500040F034811CF0400F40F0A3801CF0800F1F
:1053600000F0D381B3F9001081EAE177A7EBE17790
:10537000BFB2CB0F002900F056813A4612A90F4662
:10538000DFF8D8E30B910A930C9501E020280FD0A9
:105390001546AEFB0213DB0803EB8301A2EB4101D0
:1053A0003031092D1A4600F1010007F8011BEDD834
:1053B0000A9B0C9DCDE9055CCDE9010304960B9B8E
:1053C000424600930A235146039358464B46FEF744
:1053D000C7FE0A948046EFE423F00C0321E707336D
:1053E00023F00703194608465B6850F8081BDF0FD7
:1053F0000A9051EA030062D1002A40F09F811346CF
:10540000114612AACDE90C7500201546CDE90E68AB
:10541000DFF848E30B9201E020282DD05A1842F122
:105420000002AEFB027828F0030707EB9807D21BB7
:105430001E469B1A61F100070C464FF0CC3101FB70
:1054400003F10EFB0711A3FB0E731944052307F0AC
:105450000108A8FB03389B180A2E03F130034FEA1A
:10546000570774F1000405F8013B00F1010047EA19
:10547000C1734FEA5101CFD2DDE90C75DDE90E6849
:105480000B9B424600930A23CDE9055CCDE9010759
:10549000049603934B4651465846FEF761FE8046FC
:1054A0008AE419780F4664E71027BC46B3E623F078
:1054B000100C45E71C064CBF12881268C0E60A466D
:1054C000191E01DB13469CE75242134661EB410172
:1054D00097E713465146187842464B46D847B046A0
:1054E00048E613F0200F14BF4120612012ACA646FD
:1054F0000B940A93A0F10A040C9502E0202912D023
:105500002A46B2FBFCF50CFB1520C3B2092803F1B7
:1055100030008ABF1B19C3B2DBB262450EF8013BF3
:1055200001F10101EAD20A9B0C9D94E60A9A073226
:1055300022F00702516852F8084B8E460A9254EA4C
:10554000010276D123F01003002872D00022114608
:1055500012AA0B92CDE905530B9B42460093002300
:10556000CDE903C60191029394E7A54298BF0134A7
:105570007FF674AD4FF48063CDE90A7505EB080240
:105580001F460D46141B42464B465146202008F14B
:105590000108D847A045F6D13B460A9F29463878EE
:1055A0000B9D6C1C00283FF470AD002B3FF475AED2
:1055B000002353E5A542DFD801346EE61968CB0F0E
:1055C000002900F0A88081EAE172A2EBE17212A941
:1055D0000846DFF888E10B910A930C9501E0202F33
:1055E0000FD01546AEFB0213DB0803EB8301A2EBE1
:1055F00041013031092D1A4607F1010700F8011B5E
:10560000EDD80A9B0C9DCDE9055CCDE901730496AC
:10561000D5E6692823F0100C40F08C8013F48062EA
:105620003FF48EAE88E6002A3FF4A8AE12AA0B9291
:10563000C0E613F0200F14BF41226122002012A9FE
:105640000A3ACDE90E68CDE90C35CDF844B00646EE
:105650008846754693460B91CDF840C003E0202E56
:1056600017D004460D4629463A460023204676F0D8
:10567000E7F8D2B2092A02F1300388BF02EB0B032C
:10568000BC42DBB275F1000508F8013B06F10106EA
:10569000E5D23146DDE90C35DDE910CBDDF83C80A3
:1056A0000E9E57E70A99096851B923F0100338B1E3
:1056B00012A90B91CDE90553CDE903C60192CFE5BF
:1056C00013F0200F14BF4120612012ACA6460B94AA
:1056D0000A93A0F10A040C9502E0202A12D0294670
:1056E000B1FBFCF50CFB1510C3B2092803F1300027
:1056F0008ABF1B19C3B2DBB261450EF8013B02F150
:105700000102EAD20A9B0C9DD4E7196881EAE1778D
:10571000A7EBE1772DE6002A3FF459AF12AA0B92CE
:1057200071E713F480640DD013F0020412D0044624
:105730004646ECE50A276346BC466CE512AB002002
:105740000B939DE613F002037FF4E0AD002D7FF490
:1057500013AF9AE4002D7FF40DAF96E4CDCCCCCC02
:105760000EB410B585B007AC54F8043B01464FF0B9
:10577000FF32009404480394FFF700FB05B0BDE836
:10578000104003B0704700BFB940001070B5944698
:105790001E4605460C4684B04FF0FF32634602A910
:1057A00000960348CDE90254FFF7E8FA04B070BD53
:1057B0003D4300100FB410B50E4B84B006A91C6811
:1057C00051F8043B03915CB100914FF0FF3202A904
:1057D0000948A047012004B0BDE8104004B070475C
:1057E000184600F073FA204604B0BDE8104004B03B
:1057F000704700BFBC4F01203543001010B5094B66
:1058000084B01C684CB1034600914FF0FF3203A9ED
:105810000548A047012004B010BD00F057FA20460B
:1058200004B010BDBC4F01203543001000BEFDE7A1
:10583000074A0346106838B1064903448B428CBFBF
:105840004FF0FF3013607047034908461160F3E7DB
:10585000B44F012000000820741C042003460846B1
:10586000114623B9034BD3E9002300F04FB94FF0A1
:10587000FF30704700DC0710431E012B09D810B51C
:105880001446084601230022214600F0C9F82046AC
:1058900010BD4FF0FF3070474FF0FF30704700BF32
:1058A0004FF0FF30704700BF08B5FFF7BFFF00BFE4
:1058B0009C46144600B50B460246614683B044B18F
:1058C000054D064801940095FFF774FF0120FFF78E
:1058D000ADFF034D2C46F4E748C8071058C8071021
:1058E000C4C2071038B5064C064DFDF747FFAC4261
:1058F00004D254F8043B9847AC42FAD338BD00BFF9
:10590000E0B80710ECB807100368084611461847BE
:105910002DE9F0411546427D07468846002A46D0CB
:10592000002D1DDD0B780A2B23D0012D4FF0000C2C
:1059300018D04646012416F8012F21460A2A04F100
:10594000010422D0A542F6D165450BDC08EB050326
:1059500013F8013CA3F10D03B3FA83F35B093B7524
:10596000BDE8F0813B68A5EB0C0108EB0C00984703
:10597000ECE7037D002BD8D1036802210F4898473C
:10598000012DE3D04FF0010CD3E716F8013C0D2BAD
:10599000D8D08C4508EB0C00A1EB0C0101DA3B6878
:1059A0009847022105483B689847A446CAE729461C
:1059B00040463B68BDE8F041184700BFB0DC071027
:1059C0000B682DE9F041802B0D46064605D05A1C88
:1059D0002B442A601E71BDE8F0810F4B1C68A4B1F6
:1059E0000E4F01F1040801E0246974B12368002B13
:1059F000FAD03B680BB1A342F6D1204641462A6853
:105A0000FFF786FF2469002CF0D1002301222B44EC
:105A10002A601E71BDE8F081542B01205C2B01200F
:105A20002DE9F04782B00D4691461C460646FDF72B
:105A3000D5FC4FF0FF3C6FF000472E4A821841F131
:105A40000003944577EB03013CBF62463B462A487E
:105A500075F006FF6B1C804640D00CB3274F284BD7
:105A60001C68B4B1B9F1000F1CD1DFF89C9001E0C3
:105A7000246974B12368002BFAD0D9F800300BB137
:105A80009C42F5D120462A463146B8472469002C6D
:105A9000F0D1B8F1000F26D1284602B0BDE8F0875A
:105AA000184FDCE74FF00A0ADFF85C9002E0246947
:105AB000002CEED02368002BF9D0D9F800300BB1C0
:105AC000A342F4D12A4631462046B8470122204657
:105AD0000DF107018DF807A0B847E8E7304670F0F0
